:020000022000DC
:1070000000000420757302005D7302005F730200CC
:1070100061730200637302006573020000000000E8
:107020000000000000000000000000006773020084
:1070300069730200000000006B7302006D730200B0
:10704000859802006F730200259D02006F73020095
:107050006F7302006F730200A59B02006F73020042
:107060006F7302006F7302006F7302006F73020090
:107070006F7302006F7302006F7302006F73020080
:107080006F7302008D8902006F7302006F7302003C
:107090006F7302006F730200B9CF02006F730200BA
:1070A0006F7302006F7302006F7302006F73020050
:1070B0006F7302006F730200000000000000000008
:1070C0006F7302006F7302006F7302006F73020030
:1070D0006F7302006F7302006F7302006F73020020
:1070E0006F7302006F7302006F73020000000000F4
:1070F000000000006F730200000000006F730200C8
:10710000000000000000000000000000000000007F
:10711000000000000000000000000000000000006F
:10712000000000000000000000000000000000005F
:10713000000000000000000000000000000000004F
:10714000000000000000000000000000000000003F
:10715000000000000000000000000000000000002F
:10716000000000000000000000000000000000001F
:10717000000000000000000000000000000000000F
:1071800000000000000000000000000000000000FF
:1071900000000000000000000000000000000000EF
:1071A00000000000000000000000000000000000DF
:1071B00000000000000000000000000000000000CF
:1071C00000000000000000000000000000000000BF
:1071D00000000000000000000000000000000000AF
:1071E000000000000000000000000000000000009F
:1071F000000000000000000000000000000000008F
:10720000354936480A1A02D0072291438D4634493F
:1072100034480A1A06D00722914381F309880222D2
:1072200082F3148830483149314A00F044F831483B
:107230003149324A00F03FF831483249324A00F0D1
:107240003AF832483249334A00F035F83248334987
:10725000334A00F030F833483349344A00F02BF811
:1072600033483449344A00F026F83448344900227F
:1072700000F02CF833483449002200F027F8334856
:107280003349091A082902DB002202604160314AB1
:1072900090471F481F49884205D00268043003B454
:1072A000904703BCF7E700208646EC46002000210B
:1072B000294A9047FEE7884207D0521A05D0037842
:1072C00001300B700131013AF9D17047884202D088
:1072D00002700130FAE770470000042000E003204C
:1072E000000004200000042048FD0200E82A0020DD
:1072F000D02B0020D0730200D073020098DD020072
:1073000048FD0200E82A0020E82A00209CDE020056
:107310009CDE02009CDE02009CDE02009CDE02007D
:107320009CDE02009CDE02009CDE020048FD0200A2
:1073300030FE0200D02B0020D02B0020D02B0020CC
:107340008445002084450020844500208445002099
:10735000846500209D7302001DB60200FEE7FEE773
:10736000FEE7FEE7FEE7FEE7FEE7FEE7FEE7FEE7F5
:1073700000F002B8FFF7FCBF0F484FF00701884349
:1073800085460E4880470E48016841F4700101604F
:10739000BFF34F8FBFF36F8FFFF732BF09480A4922
:1073A0000A4A884207D0521A05D0037801300B7080
:1073B0000131013AF9D1704700000420999202008E
:1073C00088ED00E09CDE0200E82A0020E82A002088
:1073D0007047000007B5044B0093044A402300F0B7
:1073E00032F803B05DF804FBF1730200D12B0020EA
:1073F0002DE9F84389461446B2B10F4B0F4E0325D1
:10740000002743F00108224609EB0701002004F0A1
:10741000B5FA0744241A48B933782BB14FF47A40AF
:10742000C047013D02D13570BDE8F88301233370B8
:10743000002CE8D1F8E700BFA0DE0200D02B00202E
:10744000704704F0CFBAF0B595B01C461646084612
:107450000D4601F030FE1A9B0D93CDE9086400241F
:107460002346082205A928460A948DF82C400C943E
:1074700001F03EFE079B0293069B03939DF8143098
:107480008DF8114003F00302012A1DD1BDF814400C
:10749000059EC3F3C203C4F383148DF81030A20019
:1074A00008230EA9284601F023FEC6F3952608AB53
:1074B0000093224602AB0EA9304600F031FB28466D
:1074C00001F0FDFD15B0F0BD022AF8D1BDF816405F
:1074D000C3F3C203A4098DF810300827082C2646F0
:1074E00028BF08263B4632460EA9284601F000FE7A
:1074F000A41B08AB02AA31460EA8374400F074FB67
:10750000002CEBD1DBE7000008B5FFF79AFF042160
:10751000034800F075FA034B01225A7108BD00BF01
:107520008CDE0200E82A0020037813F0040216D053
:1075300003F00303012B03D0022B09D00120704775
:107540000A6800880232C0F3831002440A60F5E73B
:107550000B684288023303EB92130B60EEE7104690
:10756000704700002DE9F04F87B000230446851CCA
:107570000DF107000E4690468DF8073001F09CF89B
:10758000404A50683060936803F580731B1A924636
:1075900002F21C4602F5836902F21447AB4219D38A
:1075A0000023B8F1000F66D0052262F3070364F3ED
:1075B0008913DAF804209DF80700D1B2033115448D
:1075C0004AF82130CAF8045001F09AF8012007B0B7
:1075D000BDE8F08F0121304601F0B1FA484601F0D4
:1075E000C4FA384601F0C1FADAF808000290C0B2D5
:1075F00003300AEB800002A9FFF796FF029B30BB25
:10760000DAB20AEB8202D16803919A1C0133DBB231
:107610000AEB83030292D3F80CB001F00303012BB1
:1076200021D0022B15D08346384601F0A1FA10B1C3
:10763000029BCAF808305946304601F080FADAF861
:107640000830DAF8042003F580739B1AA6E7D8B255
:10765000CEE7BDF80E309B0903334FEA1B4B02EB1C
:1076600093030293E0E7BDF80C30C3F383134FEAB2
:107670001B4B1344F5E7062262F3070364F39F53A1
:1076800097E700BFE42C0020064B074810B5002206
:107690001A7001F0C9FC044610B9044801F070FDED
:1076A000204610BDE42C0020F8DD0200C4DE0200FC
:1076B00030B50A4C71B10A4A0A49121BD20800239C
:1076C0009A4201D1002030BD31F82350854202D0CA
:1076D0000133F5E7034654F83300F4E70CDE02000B
:1076E0008CDE0200E82A0020094B013903EBC000C0
:1076F000032909D8DFE801F00A02040604207047D4
:107700000079704740797047002070470220704729
:107710000CDE020070470000034BD3E90130C31AAE
:1077200058425841704700BFE42C00202DE9F04139
:1077300086B0FFF7F1FF0546002840F0E680744C64
:10774000C4F81804BFF34F8FA0680290C0B2033092
:1077500004EB800002A9FFF7E7FE029B18B1D4F802
:107760001824002A53D0DAB2991C013304EB8202A8
:10777000DBB204EB8303D268DB68049302F00303FB
:10778000022B039202914FD1BDF80E3061484FEAAF
:1077900093184746502F28BF502767F38F1307F1E0
:1077A0000801ADF80E3001F057FC0546002800F046
:1077B000978001F080FC03A900230822284601F0ED
:1077C0008DFC0299CE43F6B20136B600C9B2033140
:1077D000B74204EB810124D908233246BF1B284657
:1077E00001F07CFCFFB24C4906F108033A462846FA
:1077F00001F074FC029B08F1030803EB9803029369
:10780000D4F81834002B43D1D4F8106453E06268E4
:107810009A4204D8A260284606B0BDE8F081D8B2EA
:1078200095E708233A46E2E7012B59D1BDF80C3021
:107830003848C3F38311062928BF062161F3891351
:1078400002318900ADF80C3001F006FC0546002835
:1078500046D001F030FC0023082203A9284601F09D
:107860003DFC0026BDF80C20C2F38312B300964203
:1078700003F10803C4D202994A1CC9B2033102922F
:1078800004EB81010422284601F028FC0136E9E7D7
:10789000284601F014FCFFF73FFF80F00100C5B25D
:1078A000B9E7F3685B7923B1336829461B68304632
:1078B0009847F3681E68002EF3D1284601F0FFFBBD
:1078C0000DF107008DF8076000F0F6FED4F81834CB
:1078D0000BB9029BA3609DF8070000F011FFDAE7E7
:1078E000D4F8104454B90D4B0D480E49C01AC008C5
:1078F000000440F0020000F06BF8CCE7236820465B
:107900009B689847E3681C68ECE7002583E700BFA5
:10791000E42C0020F8DD0200F02C00200CDE020038
:1079200034DE0200D0DE02002DE9F34780460F4628
:10793000924601A9012218469946FFF713FE224DEF
:1079400070B3019C0026A11C4E4506EB010232D10A
:1079500000211E4801F0C8F880F31000631CDBB260
:1079600005EB8303000440EA1840D860E3B2033318
:1079700015F8232068F3C50205F8232035F82320E5
:1079800066F3891225F8232055F8232067F39F22F8
:1079900045F8232002F0F80242F0010205F8232006
:1079A0002B781BB1FFF7C2FE0028FBD1FFF7B2FE18
:1079B00002B0BDE8F087D2B205EB82025AF8263059
:1079C000D3600136C0E700BFE42C00200031002066
:1079D00000231A46FFF7A8BF07B50123019201AAA9
:1079E000FFF7A2FF03B05DF804FB07B5CDE9002364
:1079F00002236A46FFF798FF03B05DF804FB00001E
:107A000030B50F49D1F81024002314463CB9C4689E
:107A1000237152B9C1F810042260184630BDE468E1
:107A200025799D4206D02468F0E7D268116821606C
:107A30001060F2E701330A2BE7D14FF0FF33ECE798
:107A4000E42C0020084A38B50123D2F81044137002
:107A50001D4604B938BDE3685D71236820465B6844
:107A60009847E3681C68F4E7E42C0020037A052BB0
:107A700010B50C460FD0437A23B1084A0849204676
:107A800001F0D9F80749204601F0D5F82046BDE8B5
:107A9000104001F0C5B8002AF8D0F3E71BDF020060
:107AA000C3E7020028E90200C38873B504460D4607
:107AB00033B1144A00921449144A284601F0BBF825
:107AC000217A05291CD0637A4BB1A088FFF70CFE00
:107AD0000F4B104953F82020284601F0ACF8227AC9
:107AE0000D4BA08853F822600021FFF7E1FD0B4900
:107AF00003463246284602B0BDE8704001F09BB80C
:107B000002B070BD1BDF020028DF020020DF020090
:107B1000E8DE0200C3E702004CDF020040DF0200A3
:107B20002DE9F04385B01F460C9D002306460C4608
:107B3000904695F80C902B7329463846FFF7B4FF12
:107B4000B8F1060F09D8DFE808F00412181F28332F
:107B500040003146284601F06EF80022294638469A
:107B6000FFF784FF85F80C9005B0BDE8F08322682C
:107B70003146284601F05FF8EFE7D4E900233146AB
:107B8000284601F058F8E8E7A36800933146D4E9A5
:107B90000023284601F04FF8DFE7E3680193A3686C
:107BA00000933146D4E90023284601F044F8D4E795
:107BB00023690293E3680193A36800933146D4E9F3
:107BC0000023284601F037F8C7E763690393236968
:107BD0000293E3680193A36800933146D4E900233C
:107BE000284601F028F8B8E708292DE9F84F804623
:107BF0000E4617461C463AD8002593F80C901D7384
:107C000019461046FFF750FFDFF884A0DFF884B074
:107C1000AE422ED918F805205946204601F00BF83F
:107C20000135082DF4D11849DFF86CB0204601F079
:107C300002F84FF0000A564520D918F80A507E2D58
:107C400003D8284605F01EFC00B92E252A465946C1
:107C5000204600F0F0FF0AF1010ABAF1080FEAD15C
:107C6000012221463846FFF701FF84F80C90BDE859
:107C7000F88F5146204600F0DEFFD1E70349204649
:107C800000F0D9FFE7E700BF16DF020014DF0200B3
:107C900012DF02000CDF020018DF0200C30710B57C
:107CA00007D4F0234008054A145C234019431154BB
:107CB00010BD0901C9B20F23F4E700BFB0310020A5
:107CC00030B5094B1C78094B196800239C4202DC33
:107CD0000022104630BD11F83350854201EBC3023B
:107CE000F7D00133F2E700BF9C310020D0310020F3
:107CF00070B504460D46FFF7E3FF30B1436823B18A
:107D000029462046BDE87040184770BD034B044823
:107D100019680022490800F08DBA00BFA031002088
:107D2000F02A002010B5C0B2FFF7CAFF0446007861
:107D300001F02AFF63785A1E53425341834208D10F
:107D4000044BD3E90023134303D1BDE81040FFF7F0
:107D5000DDBF10BDA831002037B54308364AD35CDB
:107D6000C2074CBF1B0903F00F0304460D46042B4A
:107D700036D8DFE803F003262D393D0081B3012119
:107D8000FFF78CFF00230DF107008DF8073000F09E
:107D900093FC0122A4F12003C4F12000274902FA38
:107DA00003F322FA00F0034302FA04F4D1E90020BD
:107DB00014430343C1E900439DF8070000F0A0FC11
:107DC0000EE0002918BF02212046FFF767FF07E0F9
:107DD00041B10321FFF762FF01212046FFF788FF31
:107DE00003B030BD0121EFE70029F9D10421EBE711
:107DF00009B10321E8E7FFF751FF29462046FFF7C5
:107E000077FF0DF107008DF8075000F055FC0122B7
:107E1000A4F12003C4F12000084902FA03F322FA76
:107E200000F0034302FA04F4D1E9002022EA04043A
:107E300020EA0303BEE700BFB0310020A8310020D4
:107E40002DE9F041124E134F00243378A34208DC91
:107E5000114BD3E90023134318D0BDE8F041FFF7DD
:107E600055BF3D6805EBC40815F8340001F08CFEE1
:107E700098F801104B1E594259410A1A514215F8FF
:107E800034005141FFF768FF0134DEE7BDE8F081BF
:107E90009C310020D0310020A8310020092AF7B5FC
:107EA00005460C4616463DD901F09EFDD8B11E4B45
:107EB0001E481D601E4B1F4F1C701F4B00212022AF
:107EC0001E6005F03FFB1D4B00200021C3E90001AF
:107ED000013CE4B20326FF2C0BD1194A19480021BA
:107EE00000F096F903E001F045FD0028DFD003B073
:107EF000F0BD20B29DF806308DF8046005EBC0029D
:107F000023F007038DF8063001A9937815F83000A7
:107F10008DF805303A4601F071FD013CE4B20028CD
:107F2000D9D0E4E70720E2E7D0310020B0310020CB
:107F30009C310020257D0200A0310020A8310020C6
:107F4000417E0200ACDF020070B5084D084E0024EF
:107F50002B789C4201D3002070BD3368012113F8B7
:107F6000340001F0C7FD0134F2E700BF9C3100206E
:107F7000D03100201FB50021039001AA44F2010076
:107F8000CDE9011100F004F805B05DF804FB000034
:107F900010B572B6FFF756FDFFF7C8FB0028FBD1FE
:107FA000104B114C1149E41AE408240444F0010078
:107FB000FFF70EFD0E4B1B68DB0700D500BE0D4919
:107FC00044F00200FFF704FDBFF34F8F0A490B4B4B
:107FD000CA6802F4E0621343CB60BFF34F8F00BF67
:107FE000FDE700BF0CDE020034DE0200BBDF020052
:107FF000F0ED00E0C7DF020000ED00E00400FA054C
:1080000049B152B1531E1A4007D18260016083808A
:10801000C260104670470E2070470920704710B5A7
:108020008468C2688388121B934208D3C2681340D5
:108030000268D154C3680133C360002010BD04201E
:10804000FCE78268C3689A420AD08268838813403A
:108050000268D35C0B708368013383600020704733
:1080600005207047D0E90223D1E90201994208BFF7
:1080700090422CBF01200020704700002DE90048ED
:108080000C4800F06CFC0C4BD3E9002312EB000B06
:1080900043F1000C094BD3E900239C4508BF9345ED
:1080A0005846614603D21BF180704CF10001BDE8D7
:1080B000008800BF102B0020D83100205032002053
:1080C00037B505460C460A4801A900F07CFC60B1B2
:1080D0000570446001A9064800F09FFC18B10548EE
:1080E00000F042FC002003B030BD0420FBE700BFDD
:1080F0003C320020102B00202A4B2DE977481E78B7
:10810000044626B90026304603B0BDE87088002832
:10811000F8D0FFF7B3FFD4E90223994208BF904299
:108120003AD300230DF107008DF8073000F0C4FAB0
:1081300023692BB94FF0FF324FF0FF33C4E902231C
:108140009DF8070000F0DCFAD4E9053098470025D7
:108150000DF107008DF8075000F0AEFA2169C9B1A2
:10816000D4E902BCBCF1FF3F08BFBBF1FF3F06D022
:108170001BEB01024CF10003C4E9022335469DF8D4
:10818000070000F0BDFA002DBCD02146064801F0E2
:1081900016F8B8E70D46F2E7013308BFB2F1FF3F2A
:1081A000B0D0F2E7E0310020D8DF020013B5114B68
:1081B00011491868019008235822104800F0F0FB7C
:1081C000044698B90E4A0F4801A900F0BDFA0446CA
:1081D00060B901210B4800F0A5FB01230A4A0948B8
:1081E000194600F00BFB094B01221A70204602B021
:1081F00010BD00BFD4DF0200E43100203C3200207B
:10820000E1820200102B0020FFFF7F00E031002000
:1082100030B56AB103684FF0FF344FF0FF355A6153
:108220004A1E5142C3E9024551411961002030BD47
:108230000720FCE7F7B5054600240DF107001746B7
:108240000E468DF8074000F037FAD5E902230133D6
:1082500008BFB2F1FF3F07D1FFF710FF831941F1CB
:108260000004C5E9023401249DF8070000F048FA33
:108270004CB12B69AF6103B12E6129460020FFF795
:108280001FFF03B0F0BD2046FBE737B505460024CD
:108290000DF107008DF8074000F00EFAD5E9022332
:1082A00001330FBFB2F1FF3F4FF0FF324FF0FF330A
:1082B000C5E9022318BF01249DF8070000F020FA49
:1082C0002CB129460120FFF7FBFE03B030BD20464C
:1082D000FBE70000014800F042BB00BF102B00206C
:1082E0002DE9F74F804600F025FB40B1634AD2E903
:1082F000003113F1807341F10001C2E90031002126
:10830000404600F026FB38B15D4C236823B120685D
:10831000FFF7F2FE002323600121404600F019FB25
:1083200020B1FFF7ABFE574BC3E9000101A9564846
:10833000DFF84C9100F081FB4FF0FF344FF0FF3538
:1083400098B9DFF848914E4C484600F04EFF00289F
:1083500000F08880D0E90223591C08BFB2F1FF3F2A
:1083600034D1484600F03BFFEEE70378012B20D0E4
:108370005BB1022B14D1DFF814A1504600F02FFF9F
:10838000002877D0C0E90245F7E74168D1E9022328
:10839000013308BFB2F1FF3F02D03C4800F00FFFAD
:1083A00001A9394800F074FB01A9374800F045FBEA
:1083B000C6E74168D9F80030994203D10023C9F8D3
:1083C0000030EDE7314800F013FFE9E7216891B193
:1083D0002168D1E902018B4208BF824230D2236872
:1083E000D3E90223013308BFB2F1FF3F03D0216874
:1083F000484600F0E4FE484600F0F1FED0E9025B9A
:108400008246FFF73BFE2E1A6BEB0107012E77F138
:1084100000031ADBDFF880B05E4514D9FFF75AFF7E
:1084200000EB0B024FF496030021194800F006FA06
:1084300098B9236813B9404600F0D8F9C4F800A0F1
:1084400003B0BDE8F08F2A46ECE70021104800F0A9
:1084500076FA5046FFF750FE01E00D28F9D00023D0
:10846000236071E7064B1B68002BE9D1404600F002
:10847000C1F9E5E7074B01221A7091E7D8310020D6
:1084800058320020503200203C320020D8DF020059
:10849000102B0020E0310020FFFFB4000648074AFF
:1084A00003780749D35C012213B1043002F0C6B847
:1084B0000C3001F073BE00BF182B0020D432002016
:1084C000843200200648074A03780749D35C01221A
:1084D00013B1043002F05EB80C3001F009BE00BFE9
:1084E000182B0020D43200208532002037B50578C3
:1084F000012D05D0002D32D0022D25D003B030BD86
:10850000037A13B9FFF7CAFFF8E743681A4C1978E2
:108510002046FFF784FD80B18DF800500190174B85
:1085200068461B689847A168E368A2885B1A9A426C
:10853000E8D2134B01221A70E0E7A268E3689A427E
:10854000F1D08DF80000EAE7C3688DF80050019380
:10855000FFF7A4FF094B68461B689847CEE7094917
:108560000948FFF76EFD10B9FFF7ACFFC6E703231C
:108570008DF80030EEE700BF603200205C32002052
:10858000703200208532002074320020F0B51F4682
:10859000234B89B006461A600C4600293DD08A88D4
:1085A00020480968FFF72CFD002834D1A289A16872
:1085B0001D48FFF725FD00282DD11C4D0FCD6C4621
:1085C0000FC495E80F0084E80F0073690693337CAD
:1085D000174A18488DF81C70003318BF01238DF816
:1085E0001430737C002B14BF0E2300238DF815303C
:1085F000F3680293B3680393336801936946736821
:10860000009301F0C7F830B90B4B18703368013391
:1086100001D0FFF743FF09B0F0BD0720FBE700BF23
:108620005C3200206032002074320020F0DF020053
:10863000ED840200182B00207032002070B5084C29
:10864000014608482678FFF7FCFC054636B10023B2
:108650002370FFF723FF08B1FFF78CFC284670BD9D
:10866000703200206032002010B501460E48FFF73E
:10867000D6FC0446A8B90D480D4A0378D35C63B113
:10868000043001F0CFFF60B90A490748FFF7D9FC71
:1086900038B9BDE81040FFF715BF0C3001F072FD8E
:1086A000F1E7204610BD00BF74320020182B0020D7
:1086B000D43200208532002070B5EFF3108672B6F8
:1086C0000C4A946801239CB993600B4B0B4DD3F873
:1086D000801029401160C3F88050D3F88410516095
:1086E0004FF0FF32C3F88420047006B962B670BD43
:1086F0000370FAE78832002000E100E0FC06FFBDCD
:10870000084B9A6810B55AB150B9EFF3108172B6A0
:10871000054A1C6814605C685460986001B962B6D0
:1087200010BD00BF8832002000E100E0435882B055
:108730003BB10023435043580193019B012002B0F9
:1087400070471846FBE70000F8B5204B4479204EEF
:1087500043F824201F4A204B06EBC4049B1A2279BD
:10876000DB081B0432B143F002001C49FFF730F96B
:108770000820F8BD02680C88C2F8084590F904503A
:108780008A78002D4FEA4212ECB2D2B219DB1449BA
:108790004F1987F8002301226D0904F01F0402FA23
:1087A00004F441F82540427906EBC20101240C7122
:1087B00046F832000B4943F00300FFF709F90020A7
:1087C000D7E704F00F0408490A55ECE79C32002073
:1087D000943200200CDE020044DE020016E00200AB
:1087E00000E100E038E0020014ED00E0036801223F
:1087F0001A607047036801225A60704773B501F12F
:108800005005AD000068ADB24FF480348C400026B6
:10881000C0F80843C0F84843465101F5A8714559CE
:10882000019522F07F42019D40F82120C0F8444389
:108830000BB1C0F8044302B070BD00002DE9F74F42
:10884000884699464FF48036036808F150058E40FB
:108850004FEA880AAD00C3F84863ADB2C3F80863B5
:10886000074603EB0A00D3F804154FF0000B22F083
:108870007F44D0F84025C0F8401543F805B05B5957
:108880000093009B531A23F07F43012B0BD1244B01
:108890004FF4806043F0010398473B6843F805B00C
:1088A0005B590193019B3868D0F80455C0F84463C4
:1088B000631B23F07F43012B1AD108F5A878184BCE
:1088C000013440F8284043F001034FF4806098479A
:1088D0003B68D3F804359D4208D13B680020C3F8BB
:1088E0004463C3F8046303B0BDE8F08F0D20FAE7DA
:1088F0008244C9F1FF19CAF84045D0F80435E21A9C
:10890000013A22F07F4209F57F499145EED3002AD2
:10891000E3D10134CAF84045D0F804259342DBE79F
:1089200010E0020003680222C3F8442309B1C3F82F
:10893000042370474FF482710068FFF7F7BE4FF4CD
:10894000803303FA01F10368C3F84813C3F808132E
:1089500070475031890089B20068FFF7E7BE0368AD
:10896000D3F804057047000090F90430002B09DBB0
:108970005A09012103F01F0301FA03F340320249AF
:1089800041F82230704700BF00E100E0024B034A8B
:108990001B681068184700BF9C32002094320020EA
:1089A00010B561B1B2FBF3F403FB1424A4B244B9D3
:1089B000C0E9001484608281C381204610BD0E206E
:1089C000FCE70920FAE737B550E8013F9DB2C489BA
:1089D00025448489A54228BF2D1B0489A54202BFD6
:1089E000BFF32F8F002207E0C5EA030540E80154DA
:1089F000002CE9D14FF001028DF803200193019B77
:108A00009DF803200B6002F0FF0322B10B88006881
:108A1000184403B030BD1846FBE70A884B889A42D9
:108A200009D150E8012FC2EA024240E80123002B9D
:108A3000F7D1012070470020704737B550E8023F5A
:108A40001FFAA3F5C488A54202BFBFF32F8F0022EF
:108A50000DE0C48925448489A54228BF2D1BC3EAA3
:108A6000054540E80254002CE8D14FF001028DF892
:108A700003200193019B9DF803200B6002F0FF038C
:108A800022B14B880068184403B030BD1846FBE79C
:108A90000A884B889A4209D150E8022FC2EA224242
:108AA00040E80223002BF7D10120704700207047D7
:108AB00001F01F024B090121914000EB830000F0FF
:108AC0001DB801F01F0301229A404B0900EB8300FF
:108AD000D14300F029B84B0901F01F0150F82300E1
:108AE000C84000F00100704750E8002F0B4640E8F6
:108AF000003C9CF0000FF7D11046704750E8003F53
:108B000043EA010240E8002C9CF0000FF6D1104629
:108B1000704750E8002F02EA010340E8003C9CF057
:108B2000000FF6D11046704750E8003F03EA0102FB
:108B300040E8002C9CF0000FF6D11046704750E83A
:108B4000003F03EB010240E8002C9CF0000FF6D13F
:108B50001046704750E8003FA3EB010240E8002CAC
:108B60009CF0000FF6D1104670470121FFF7C6BFF9
:108B70000021FFF7CEBF10B590B1D0E90123016805
:108B80009B1ADBB20A60013BDBB2FF2B026802D109
:108B90000020107110BD11684C1C14600B70F2E7BE
:108BA0000E20F7E737B5054600240DF107008DF8D4
:108BB0000740FFF781FD2A686B68116899420ED95A
:108BC000481E106011F8014CEB68298A01FB04343F
:108BD000AB6811791B1ADBB2994238BF13719DF84B
:108BE0000700FFF78DFD204603B030BD37B50546C1
:108BF00000230DF107000C468DF80730FFF75CFDF0
:108C00002A681368591C1160E968641A298AB4FB40
:108C1000F1F41C709DF80700FFF772FD03B030BD42
:108C2000826810B504462AB1436901680069984713
:108C30000023A36010BD0EB403B5039921B104ABAA
:108C400001AA019300F074F802B05DF804EB03B0E0
:108C500070470A2938B504460D4602D10D21FFF7A9
:108C6000F8FFA3682268591CA160D554D4E90132E9
:108C70009A4204D32046BDE83840FFF7D1BF38BD43
:108C80002DE9F84F9946DDE90A43174682468846A2
:108C90000A460126BA420FD24E4538BF4E4613F05F
:108CA000010B01D164B900240125B9F1010F1AD9D2
:108CB00009F1FF397D43F8E7B2FBF7F20136E9E746
:108CC0009B070ED5B9F1000F0CBF30252025A64219
:108CD000EAD2013C29465046FFF7BBFF002CF6D1F3
:108CE000E1E72025F3E7B8FBF5F39F42E2D9DFF88F
:108CF0003C90B8FBF5F3504619F8031005FB1388B8
:108D0000FFF7A7FFB5FBF7F3BD4207D2BBF1000F9A
:108D100002D00CB1A64203D3BDE8F88F1D46E8E7A8
:108D200020215046013CFFF794FFF2E74AE00200A1
:108D30002DE9F74F054617468846002900F0308197
:108D400018F8011B49B92B7B002B00F0298128461C
:108D500003B0BDE8F04FFFF763BF252940F0C080A6
:108D6000002698F800302D2B424608F1010823D048
:108D7000302B24D02B2B25D000242A2B02F10101EB
:108D800023D13B681A1D1B683A601C440A461378BD
:108D90002E2B26D101324FF00009104610F8011B8E
:108DA000A1F1300CBCF1090F1DD80A2303FB0913F4
:108DB000A3F130090246F0E746F00106D1E746F09C
:108DC0000206CEE746F00406CBE711F8013CA3F11A
:108DD00030000928DBD80A2202FB0434303C0A4662
:108DE000CBE74FF0000912F8011B01F0FB006828E7
:108DF0009046F8D069290ED04AD8582964D006D8B0
:108E000025296DD098F80030002B99D19BE7632974
:108E100062D06429F6D13A68D2F800A0111D8AEA1E
:108E2000EA723960A2EBEA724FF0010B092A5BDCAF
:108E3000CB4538BFCB462CB1BAF1000F01DB72072E
:108E400000D5013CB30702D5B9F1000F04D0F007FB
:108E500002D4002C4ED10024BAF1000F52DACAF12C
:108E6000000A2D212846FFF7F4FE06F00302022A2D
:108E700005D1B9F1000F02D1002C47D10024CDE972
:108E800000464B460A2251462846FFF7F9FEB9E74D
:108E900073294CD014D87029B4D13B681A1D3A609C
:108EA000302128461C68FFF7D4FE78212846FFF7BA
:108EB000D0FE00220823CDE9003221461022E3E74C
:108EC00075292BD078299DD139680A1D3A60CDE9E2
:108ED00000464B46102228E03B681A1D19783A607C
:108EE0002846FFF7B6FE8DE70A230BF1010BB2FB14
:108EF000F3F29BE7A345AFD220212846013CFFF7C0
:108F0000A8FEA6E77107B0D52B21ABE7A345B6D2E3
:108F100030212846013CFFF79CFEADE73968CDE9DA
:108F200000460A1D3A604B460A220968ACE73B68D6
:108F30001A1D3A6016F00106D3F800A020D1BAF14C
:108F4000000F03D0504604F052FB0646B44200D94D
:108F5000C4B90AF1FF3A1EE028460136FFF779FE50
:108F60001AF806100029F7D1A642BFF44BAF002C27
:108F70003FF448AF20212846013CFFF76AFEF3E7A3
:108F80000026EDE720212846013CFFF762FEDDE7E1
:108F90002846FFF75EFE1AF8011F0029F8D131E7D5
:108FA00003B0BDE8F08F2DE9F047B0F806904479A2
:108FB000D2F800A09DF8208009FB04F4043C06468A
:108FC0000AEB0300A0420F4688BFA4EB030A191D59
:108FD000C2F800A0B1FBF9F509FB15114DB9A9EBD9
:108FE0000104544528BF5446BAF1000F04D1BDE82E
:108FF000F0873668013DF1E704317B19701822468D
:10900000B8F1000F0ED001461846AAEB040A04F08E
:1090100070FAD145254436684C464FF0000128BF10
:109020005446E1E71946F0E7FFF7A5BDF8B54679E4
:109030000146721E0546002393422D6803D3002487
:10904000A64202D8F8BD0133F6E70F682846FFF7BD
:10905000CDFD01343946F3E72DE9F843068ACD1CEE
:109060000746FFF79FFD043E35440446B5FBF6F581
:10907000F0B14FF48073EDB28380C680013D07608C
:1090800081464FF00008A84512D23846FFF78AFD06
:10909000064648B163790133637108F10108C9F8E4
:1090A000000007608146EEE72046FFF7BFFF344629
:1090B0002046BDE8F88301210430FFF740BD10B51C
:1090C000012104460430FFF745FD10F0FF0F04D1E5
:1090D0002046BDE81040FFF7A9BF10BD1FB50392A1
:1090E0000022009203AAFFF75EFF05B05DF804FBC3
:1090F0001FB503920122009203AAFFF754FF05B0A7
:109100005DF804FB41DF7047064B10B500241C706E
:10911000054B1C60BFF35F8F0449054800F039F828
:10912000204610BDA8320020AC3200205CE00200D6
:10913000A032002007B500230DF107008DF807309D
:10914000FFF7BAFAF1EE103A23F09F03E1EE103A7E
:10915000BFF35F8F094B4022C3F884219DF80700BD
:10916000FFF7CEFA03F00EFF20B1FFF7CBFF03B0FD
:109170005DF804FB20BF40BF20BFF8E700E100E03E
:10918000836800225A609A60C3E90422DA601A6098
:1091900070470B684A684360934208BF0023016030
:1091A00008BF43607047436843B1026891685268E2
:1091B0000B449342436004BF00234360704770B583
:1091C000446806460D46206818B1B368294698479A
:1091D00018B923682B60256070BD2468F3E74368E5
:1091E000186808B102681A607047436818687047C9
:1091F0004368186800B97047884203D102681A6052
:109200000120704703460068F4E7000010B50D49DF
:10921000A1F59472914201D800200FE08B1ADB1067
:1092200003EBD3735B1002EBC30452F83330834279
:1092300005D802D204F10802ECE7606810BD2146AF
:10924000E8E700BFB8E1020008B5FFF7DFFF024B17
:10925000002808BF184608BD7AE0020010B5044691
:10926000C0B2FFF701FA204610BD0000054B186898
:10927000043B1B68082B06BFB0FA80F040090020B1
:10928000704700BF34010010024AD2F80034002BAE
:10929000FBD0704700E00140684B1B68082B10B5FD
:1092A00050D14FF080430022C3F80C21C3F81021A5
:1092B000C3F838254FF0805203F54043D2F8041428
:1092C000C3F82015D2F80814C3F82415D2F80C14EA
:1092D000C3F82815D2F81014C3F82C15D2F81414BA
:1092E000C3F83015D2F81814C3F83415D2F81C148A
:1092F000C3F84015D2F82014C3F84415D2F824144A
:10930000C3F84815D2F82814C3F84C15D2F82C1419
:10931000C3F85015D2F83014C3F85415D2F83414E9
:10932000C3F86015D2F83814C3F86415D2F83C14A9
:10933000C3F86815D2F84014C3F86C15D2F8442469
:10934000C3F87025FFF792FF10B13D4B3D4A1A60FC
:10935000FFF78CFF18B13C4BFB22C3F81825FFF731
:1093600085FF48B139493A4B0A681B6822F00F0261
:1093700003F00F0313430B60FFF778FF18B1354B71
:109380004FF400721A602D4B1B68082B09D14FF067
:109390008043D3F80024D20744BF6FF00102C3F822
:1093A00000242D4AD2F8883043F47003C2F8883084
:1093B000BFF34F8FBFF36F8F204B1B68082B0BD170
:1093C000264B1B68032B81BF4FF01023D3F80822D4
:1093D0004FF08043C3F858254FF01023D3F80022F4
:1093E000002A03DBD3F80432002B22DA1C490123C4
:1093F000C1F80435FFF748FF4FF010201224C0F8E1
:109400000042FFF741FFC0F80442FFF73DFF002391
:10941000C1F80435FFF738FFBFF34F8F0E49114BEA
:10942000CA6802F4E0621343CB60BFF34F8F00BF02
:10943000FDE70D4B0D4A1A6010BD00BF3001001052
:109440008C5600404881030000F00040E40E0040CC
:10945000580200104096024000ED00E03401001078
:1094600000E001400400FA052C2B00200090D003FE
:10947000074B1B5C1F2B8ABF064A4FF0A04203F02C
:109480001F03D2F80405D840C04300F00100704724
:1094900076E5020000030050074B1B5C1F2B86BFC4
:1094A00003F01F0305494FF0A041012202FA03F324
:1094B000C1F80C35704700BF76E50200000300508C
:1094C000074B1B5C1F2B86BF03F01F0305494FF0A2
:1094D000A041012202FA03F3C1F80835704700BF2A
:1094E00076E502000003005008B50020FFF7E8FF12
:1094F0000120FFF7E5FF0220FFF7E2FF0320BDE8B0
:109500000840FFF7DDBF08B50020FFF7C5FF0120C9
:10951000FFF7C2FF0220FFF7BFFF0320BDE80840AE
:10952000FFF7BABF0A4B185C1F288ABF094B4FF0E0
:10953000A04300F01F00D3F804250121814021EA57
:1095400002000A40C3F80805C3F80C25704700BFA5
:1095500076E5020000030050074B1B5C1F2B8ABFFF
:10956000064A4FF0A04203F01F03D2F81005D8407E
:10957000C04300F00100704772E502000003005094
:109580000B2809D00C2809D0182809D019280CBF9D
:1095900003204FF0FF3070470020704701207047D4
:1095A00002207047014B185C704700BF72E5020053
:1095B000C20710B504460CD54FF0A0430322C3F8F0
:1095C0003427C3F83827C3F83C27C3F84027FFF7F0
:1095D0008BFFA3070AD54FF0A0430C22C3F82C271A
:1095E000C3F83027C3F86027C3F8642710BD000014
:1095F00038B5074C051E04F1080318BF1C46236844
:109600002BB11A6822605B6828469847F7E738BD97
:10961000B832002020B9054B01225A70FFF7E8BF8D
:10962000012802D1014A9070F8E77047B03200205B
:1096300020B9034B01225A70FFF7DABF704700BF11
:10964000B032002038B50E4C2378B3B90D486360B2
:10965000A3602361E36000F0E3F8054603F092FCA9
:1096600008B900F0E9F801232370074BD3F8003460
:109670000BB10123A370284638BD8525F5E700BF4F
:10968000B0320020159602000000014037B50D4CA5
:1096900000230DF107008DF80730FFF70DF8E368A0
:1096A000013BE360E36833B9074BD3F8005415B9C5
:1096B00000F0D4F8A5709DF80700FFF721F803B07B
:1096C00030BD00BFB032002000000140012813B5BA
:1096D0000DD018B1032820D002B010BD114B0122CB
:1096E000C3F88020BFF34F8FBFF36F8FF4E70E4CAA
:1096F00000230DF107008DF80730FEF7DDFF23781A
:109700000BB9FFF79FFFE3689DF807000133E360A3
:109710000123A370FEF7F4FFDEE700F08DF8FFF7FA
:10972000B5FFD9E700E100E0B03200201FB50378B3
:109730008DF800304368019383688DF80830C36862
:109740000393054A054B684653F8213052F821101F
:10975000984705B05DF804FBC4320020CC320020ED
:109760001FB503788DF800304368019383688DF846
:109770000830C3680393054A054B684653F8213007
:1097800052F82110984705B05DF804FBC432002060
:10979000CC320020F0B5184B0778DFF86CE043F8C6
:1097A0002720164B16460A6943F827204B7F0EF8F0
:1097B00007300C4684460FCC89B06D460FC594E83F
:1097C0000F0085E80F001EF80730049753B1002EF4
:1097D0000B4A694608BF32460CF1040000F0FEFD5A
:1097E00009B0F0BD002E074A694608BF32460CF1A9
:1097F0000C0000F0ADFBF3E7CC320020C4320020B7
:109800002D97020061970200D432002000F18040C1
:10981000002382B0036003680193019B02B070478C
:10982000044A137923B901211060918018467047CA
:1098300085207047D8320020074B1A68D20704D41D
:10984000C02283F8002301221A604FF080430122D6
:10985000C3F81825704700BF00E100E04FF08042D8
:1098600008B50223C2F808334FF48270FFF7CEFF29
:10987000034B01211960D2F81834DB03FBD408BD77
:109880000C000040124B1B6810B573B14FF4807090
:10989000FFF7BCFF4FF080430122C3F808230D4BB4
:1098A000587910B95A711B6898470B4B1B6873B1F4
:1098B0004FF48270FFF7AAFF4FF080430222C3F8F3
:1098C0000823044B01201B68BDE81040184710BD59
:1098D00000010040D83200200401004000F1804027
:1098E00000F5C040002382B0036003680193019B30
:1098F00002B0704703681F2B83BF03F01F03036090
:1099000001484FF0A04070470003005007B5019098
:1099100001A8FFF7EFFF019B00EB8300D0F80027C1
:1099200022F44032C0F80027D0F8003743EA014360
:10993000C0F8003703B05DF804FB4309012B00F0C9
:109940001F004FF6FF7318BF4FF0FF3323FA00F0EC
:1099500000F0010070470000054B4FF0FF32072870
:1099600043F8202084BF1B1883F85820704700BF9D
:10997000E032002010B5184C94F86A2052BBFF2149
:109980001046FFF7DAFF10B1A31883F83010013248
:10999000302AF5D10021C8B2FFF7DEFF01310C29D2
:1099A000F9D1062200210D4803F0CCFD0C4BC0225A
:1099B00083F8062340221A604FF4BE70FFF78EFF33
:1099C000084B4FF00042C3F80423012384F86A30A7
:1099D000002010BD0820FCE7E032002044330020C6
:1099E00000E100E000600040034B93F86A000030A3
:1099F00018BF0120704700BFE0320020F7B53B4E92
:109A00003318054693F93030002B6CDA8B78C3F3AA
:109A10004003002B0BBF082400240C2008208442A4
:109A200002D1042003B0F0BD56F82470013743D1B1
:109A3000701946F8242080F8304013B9331983F8A0
:109A400058508B785A0717D4D80737D501A80195F5
:109A5000FFF750FF019B00EB8300D0F8003723F0A5
:109A60000203C0F800372248EA0805F0070701237F
:109A7000BB40875C3B43835488780A7810F002002F
:109A800028D0A40004F1804404F5C0442D02D4F889
:109A9000103523F44F3323F44073C4F81035120407
:109AA000D4F8103505F47C5502F4403215431D43BB
:109AB000C4F810550020B5E70134B0E701A84A7892
:109AC0000195FFF717FF019B03F5E073920040F843
:109AD0002320C8E7083C344494F8605045EA8212D9
:109AE00084F860209EE708209CE700BFE032002059
:109AF0004433002073B5224C2518064695F93020D2
:109B0000072A19DD224492F858309B09032B0FD104
:109B1000019001A8FFF7EEFE019AD0F81035D3406E
:109B2000DB0707D402213046FFF7F0FE02B070BD1C
:109B3000012BF7D00321F6E7D3B2072BF6D8930019
:109B400003F1804303F5C043D3F8100540F0010052
:109B5000C3F8100502F14000800080B2FFF7BEFE9E
:109B60000029E3D095F9303054F82330002BDDD0B4
:109B7000012303FA02F2034BC3F80423D6E700BF24
:109B8000E03200200060004007B5019001A8FFF717
:109B9000B1FE019BD0F81005D84000F0010003B0E1
:109BA0005DF804FB2DE9F04F002485B0CDE90244B7
:109BB000574D4FF48072012102F1804303F5C043F9
:109BC00090B21B68012B06D1D5F804330B4202D0AA
:109BD000FFF784FE0C430432B2F5907F4FEA410157
:109BE000EAD14C4B1B68012B11D14FF4BE70FFF72B
:109BF00075FE4FF0A04344F00044D3F820250292B4
:109C0000C3F82025D3F820280392C3F8202814F0A5
:109C1000FF0F1AD0404F00250126344210D0AB0070
:109C200003F1804303F5C043D3F81005D3F81015B2
:109C300057F8253023B1C1F30141C0F305209847FF
:109C40000135082D4FEA4606E7D1002C58DADFF837
:109C5000C880324FDFF8C8904FF0000B4FF0010A78
:109C600019F9011B4B1C38D0CCB224F0C00504AB51
:109C700003EBD50313F8082C04F007030AFA03F3E7
:109C80001A422AD001A80195FFF734FE019B03F583
:109C9000E07350F82360C6F30146022E0CBF032187
:109CA00002212846FFF732FE01A80195FFF722FEA8
:109CB000019B0AFA03F3C0F8203508EB050393F97A
:109CC000303058F8233043B1A109032903D0022EC4
:109CD00019D1012901D1284698470BF1010BBBF19D
:109CE000040FBDD14FF0A043D3F820250292C3F852
:109CF0002025D7F820350393C7F820351343A9D181
:109D000005B0BDE8F08F032EE7D10229E2E700BFDE
:109D1000006000407C610040E03200200003005001
:109D200040330020014B1B68184700BF4C33002014
:109D30000E4B984237B50D4602D0002003B030BD1F
:109D400000230DF107008DF80730FEF7B5FC084B36
:109D50001C7914B901221D601A719DF80700FEF7E5
:109D6000CFFC002CE9D01120E8E700BF0020004024
:109D70004C3300200023435082B043580193019B91
:109D800002B070470A4610B54FF48E71FFF7F2FF2C
:109D9000136A9168C95C136A01331362C0F81C1519
:109DA00010BD024608B54FF492710068FFF7E2FF5C
:109DB0004FF484711068FFF7DDFF136801221A6009
:109DC00008BD8B690A4610B54FF4847123B9FFF7BB
:109DD000D1FFD0F8183510BDFFF7CCFF536AD1681A
:109DE000D0F81805C854536A01335362F3E70000F2
:109DF0001FB501238DF80030044BCDE90110D3E9E4
:109E000000126846904705B05DF804FB543300200B
:109E100030B54D4AD2F8043313F4007F85B01546AF
:109E20004FD0D2F82431002B4BD04FF49271104612
:109E3000FFF7A0FF4FF40173C2F80833434B93F8C8
:109E4000291009B9012151603F4902228DF80020F3
:109E5000D1F88024C1F8802403929A690292DA68CA
:109E600001920022C3E906226846D3E90012904716
:109E70003548D0F81C315BB134494A690B6A9A42C3
:109E80000A464BD991F82830002B47D1FFF77AFFCB
:109E90002D4AD2F8443193B14FF4A2711046FFF726
:109EA00069FF2A4B93F8291009B1012111609A69C1
:109EB0002AB100229A61586AD968FFF799FF05B064
:109EC00030BDD5F804335B07D2D5D5F80831002B67
:109ED000CED01E4C1C482146FFF773FF636AA2696F
:109EE0009A422346C4D1E269E1684AB12369E3603A
:109EF0000023606AA261E3616362FFF779FFB7E75D
:109F000094F829200AB901226A600F4A4FF40170BF
:109F1000C2F8080300229A61586AEEE74FF48E7186
:109F20000948FFF727FF5369002BB1D0516902910F
:109F3000002391688DF80030019153616846D2E9A1
:109F400000139847A4E700BF0020004054330020CE
:109F50002DE9F843604F047991462C2202FB0472EC
:109F6000064692F82A200D46002A40F0AE805B4952
:109F70000068FFF7DDFE8046002840F0A9802968D0
:109F80004A1C10D01F2987BF01F01F03544A0B46FB
:109F90004FF0A0420120984003F5E073C2F8080595
:109FA000032042F823006868431C0DD01F288BBF94
:109FB00000F01F0303464A4A4FF0A04203F5E07346
:109FC0004FF0000C42F823C03368AA6995F814C01A
:109FD000C3F824256A7DBCF1010F4CEA0202C3F8E4
:109FE0006C25C3F81405C3F80C152BD1A968481CBF
:109FF0000DD01F298BBF01F01F020A4638484FF0D1
:10A00000A04002F5E0724FF0000C40F822C0E86872
:10A01000421C13D01F2887BF00F01F0C304A844613
:10A020004FF0A0424FF0010E0EFA0CFE0CF5E07C52
:10A03000C2F808E54FF0030E42F82CE0C3F808051B
:10A04000C3F810152C236343FA18C2F804902A6948
:10A05000FA50B9F1000F20D04FF48E7130682A7F8A
:10A06000FFF788FE4FF4A2713068FFF783FE336874
:10A070001C49C3F804131B0B59B252010029D2B278
:10A080001EDB1948451885F800230122490903F011
:10A090001F0302FA03F340F8213033680422C3F8A7
:10A0A00000252C2303FB04730022C3E9062283F856
:10A0B00029205A61012283F82A204046BDE8F8830E
:10A0C00003F00F030949CA54E7E74FF00808F4E723
:10A0D0004FF01108F1E700BF54330020119E020039
:10A0E000000300508000020000E100E014ED00E0F9
:10A0F0002DE9F84F224F06794FF02C0909FB067421
:10A1000080466569002D38D16261A16025624FF4F7
:10A110008E71006884F82850FFF72CFED8F80000F4
:10A12000012383602146FFF72DFE6368A1469BB99A
:10A13000D8F800A0D4F814B0236A9B4512D8D8F8F8
:10A140000020D2F81C31002BFBD00123D3602C233C
:10A1500003FB067300225A612846BDE8F88F94F885
:10A16000283043B9DAF81C31002BF8D04946504664
:10A17000FFF708FEE0E70F25E9E71125ECE700BF50
:10A18000543300200379044A2C2101FB032358692E
:10A19000003018BF01207047543300202DE9F843E8
:10A1A000394E05792C2303FB056307465C6824B10F
:10A1B00003684FF40170C3F808032C2303FB056305
:10A1C000986950B1D86900283ED024B13B684FF45B
:10A1D0000172C3F80423112433E09A61D9605862F4
:10A1E000D8612C2303FB056393F829301BB910B900
:10A1F0003846FFF7D6FD4FF02C0909FB0568386893
:10A20000D8F80430002B34D14FF4A271FFF7B2FD1F
:10A21000C1463868D0F82431D0F80821D0F844413C
:10A22000B2B90CB9002BF4D02C2202FB0565002238
:10A23000AA6123BB2CBB95F829103B680122B1B160
:10A240001A602046BDE8F8831961DA610120C8E789
:10A25000002BE9D1002CE7D14946FFF7B2FDD8F831
:10A260002430D8F818209A42D3D82346DCE75A6025
:10A27000E7E74FF40173C0F804330024E1E7032457
:10A28000DFE70F24DDE700BF5433002000234350F5
:10A2900082B043580193019B02B070471FB5012360
:10A2A0008DF80030044BCDE90110D3E90012684667
:10A2B000904705B05DF804FB803300207FB5454A28
:10A2C000D2F82461002E63D010464FF49271FFF74C
:10A2D000DDFF02238DF80030D2F88034C2F88034DC
:10A2E0000393D2F83C3502933B4BDA68019200228B
:10A2F000C3E906226846D3E900129047354AD2F8EE
:10A3000044317BB14FF4A2711046FFF7BFFF324BCF
:10A31000996939B10021C3E90611D968D2F83C0521
:10A32000FFF7BCFF2B4AD2F82031B3B14FF4907144
:10A330001046FFF7ABFF0123D360274B596961B18A
:10A34000D2F84C150291002299688DF800200191F5
:10A350005A616846D3E9001290471E4AD2F8583134
:10A36000A3B14FF4AC711046FFF790FF1A4B596937
:10A3700061B1D2F84C150291002299688DF8002045
:10A3800001915A616846D3E90012904704B070BD4C
:10A39000D2F81031002BB1D04FF488711046FFF77E
:10A3A00075FF0D4BD2F83C0599698842A6D1DC694E
:10A3B000D96864B1D2F8005225F02005C2F80052E5
:10A3C0001A699C61DA60DE61FFF768FF96E79C61BD
:10A3D000FAE700BF00200040803300202DE9F84359
:10A3E000664F06799146242202FB0672044692F8D3
:10A3F00020200D46002A40F0BB8061490068FFF72D
:10A4000097FC8046002840F0B6802868421C10D097
:10A410001F2887BF00F01F035A4A03464FF0A0428F
:10A420000121994003F5E073C2F80815032142F8B1
:10A43000231069684B1C0DD01F298BBF01F01F032F
:10A440000B46504A4FF0A04203F5E0734FF0000C6A
:10A4500042F823C02368AA6995F814C0C3F82425DC
:10A460006A7DBCF1010F4CEA0202C3F86C25C3F807
:10A470000C05C3F814152BD1A968481C0DD01F2951
:10A480008BBF01F01F020A463E484FF0A04002F584
:10A49000E0724FF0000C40F822C0E868421C13D074
:10A4A0001F2887BF00F01F0C364A84464FF0A04299
:10A4B0004FF0010E0EFA0CFE0CF5E07CC2F808E538
:10A4C0004FF0030E42F82CE0C3F80805C3F810154E
:10A4D00024237343FA18C2F804902A69FA50B9F198
:10A4E000000F2FD04FF4887120682A7FFFF7CEFE2F
:10A4F0004FF490712068FFF7C9FE4FF49271206805
:10A50000FFF7C4FE4FF4A2712068FFF7BFFE4FF4BF
:10A51000AC712068FFF7BAFE23681B49C3F8041327
:10A520001B0B59B252010029D2B21CDB1748451847
:10A5300085F800230122490903F01F0302FA03F3FF
:10A5400040F8213023680822C3F80025242303FBA8
:10A5500006730022C3E906225A61012283F82020F3
:10A560004046BDE8F88303F00F030949CA54E9E700
:10A570004FF00808F4E74FF01108F1E780330020AE
:10A58000BDA20200000300501003420000E100E001
:10A5900014ED00E001F06043B3F1005F2DE9F041FC
:10A5A000074638D11E4B0679242505FB063598460B
:10A5B0006C69002C31D16A61A96000684FF4907118
:10A5C000FFF764FE4FF4AC713868FFF75FFE3B683D
:10A5D0006A69A968C3F84415C3F8482501229A603E
:10A5E0006A68AAB9D3F82021D3F858411AB9002CC7
:10A5F000F8D00F2407E0002CFBD10122DA60D3F859
:10A600005821002AFBD0242303FB06860023736114
:10A610002046BDE8F0811024FAE71124F8E700BFD6
:10A62000803300200379044A242101FB0323586965
:10A63000003018BF0120704780330020F8B501F0CA
:10A640006043B3F1005F04460F465ED10379304D9D
:10A65000242101FB0351486820B121684FF404769E
:10A66000C1F80863242101FB03539E6956B1D969DF
:10A67000002939D020B123684FF40472C3F80423B1
:10A68000112030E09A61DF60DE614FF4887120684C
:10A69000FFF7FCFD4FF4A2712068FFF7F7FD236878
:10A6A000C3F83475C3F8382516BB01221A60217926
:10A6B000242202FB015252680ABBD3F81041D3F89E
:10A6C0004421D3F82401144302D10028F5D02246B6
:10A6D000242303FB01550023984218BF03209A420C
:10A6E000AB6118BF0F20F8BD1F61DA610126CCE70E
:10A6F000D3F8002242F02002C3F80022D7E74FF43B
:10A700000472C3F804230020EDE71020EBE700BF3C
:10A71000803300200220FEF705BF00002DE9F0473E
:10A7200081460D46FEF72CFF0328044604D8012D70
:10A7300004D025B3022D2FD0BDE8F087194D470076
:10A740003A18A918AE5C4A7852B1DFF8688016480A
:10A7500042464FF48041FDF76DFD08B988F800903E
:10A760003B192B449A78114B1A55002EE4D0104B0C
:10A770001B68002BE0D03046BDE8F04718470A4878
:10A78000FDF783FD074B04EB440213449E78074B0F
:10A790001B5DB342D0D1E8E7024B00EB40041C4400
:10A7A0006678E2E7A6330020502B0020C13300205A
:10A7B000BC330020A433002002210078FFF7AEBF95
:10A7C00008B5094B1B7853B10020FEF779FE012034
:10A7D000FEF776FE0320BDE80840FEF771BEBDE837
:10A7E0000840FEF781BE00BFA5330020F8B57B4CC2
:10A7F000237805461BB100232370FFF7E1FF172DD7
:10A8000000F28880DFE805F00C1717435465768066
:10A81000888D888D959A9A9A9A9AC4C9D1D9E4E478
:10A82000FFF7CEFF6E48FDF730FD6E4B0022044669
:10A830001A702046F8BD0020FEF71AFEF8B100207D
:10A84000FEF73EFE022D0CBF4FF4E1614FF47A613A
:10A85000644B1D704FF400404FF47A740025E0FB08
:10A8600001454FF4FA6200232046294602F014FD08
:10A87000002201465A48BDE8F840FDF7DBBCFEF770
:10A880000BFE022D0CBFC8214FF4C871E0E7002079
:10A89000FEF7EEFD40B10020FEF712FE4FF44871C6
:10A8A000504B03221A70D5E7FEF7F6FDC821F7E7F3
:10A8B0000020FEF7DDFD38B10020FEF701FE4FF469
:10A8C0007A61484B0422EDE7FEF7E6FD4FF4C871CC
:10A8D000F7E70020FEF7CCFD48B10020FEF7F0FDC1
:10A8E000404B05221A7040F6CD410022C2E7FEF728
:10A8F000D3FDF5E70020FEF715FE3A4B06221A704D
:10A90000002240F26661B5E70020FEF7C5FD354B39
:10A9100007221A7000248CE701202070FEF702FE47
:10A92000EEE701202070FEF7FDFD00224FF40051FC
:10A93000A0E7FEF7E8FD2B4B0C22EAE72A482B4E56
:10A94000FDF7A3FCD5F1110504461CD0D8B9012DA3
:10A9500013D0C8235D434FF400474FF47A700021B1
:10A960004FF4FA620023C7FB050102F095FC224672
:10A9700001461D48FDF75EFC04460220FEF78CFDF3
:10A980000123337055E70220FEF79AFD0023F8E714
:10A99000FFF716FF134B1222BBE7FFF711FF002052
:10A9A000FEF77AFD0F4B1322B3E7FFF709FF0120F3
:10A9B000FEF772FD0B4B1422ABE7FFF701FF0020FF
:10A9C000FEF76AFD0120FEF767FD064B1522A0E7A2
:10A9D000FEF799FD034B1D709CE700BFB8330020C4
:10A9E000702B0020C0330020302B0020A533002026
:10A9F000044B1B68DB0703D5034B1878FFF7F6BE43
:10AA0000704700BFB4330020C0330020002910B5C8
:10AA100014BF03240024FEF7C5FD1F288ABF0A4B7C
:10AA20004FF0A04300F01F0003EB8000D0F8002798
:10AA300022F44032C0F80027D0F8003743EA04433C
:10AA4000C0F80037002010BD00030050032801D8D3
:10AA5000FEF782BD00207047044B1B6813F0010312
:10AA600001D0FFF7C3BE1846704700BFB4330020C3
:10AA700038B51C4B18601C4B10F0020405461960D9
:10AA80001AD01A4B1A480E221A700F22DA701022AE
:10AA90009A7111225A72042140F23332FDF7FEF905
:10AAA000044648B9FDF750FA044628B90146114A50
:10AAB0001148FDF7ADFB0446EB0711D50120FEF769
:10AAC00077FD6CB921460D4A0D48FDF7A1FB044600
:10AAD00030B90C4A0C480121BDE83840FDF798BB5D
:10AAE000204638BDB4330020BC330020A6330020FC
:10AAF00098E50200B9A70200BCE50200F1A9020036
:10AB0000C0E5020015A70200B8E50200032813D82B
:10AB1000012A0BD1012908D100F10E02D2B200EBBB
:10AB200040000C4B1A540020704700220129F6D037
:10AB30004BB24BB1022901D007207047054B00EB07
:10AB4000400018444270EEE7024900EB4000084420
:10AB50008270E8E7A6330020032802D80121FFF71E
:10AB600055BF0620704708B5012202210020FFF7DB
:10AB7000CDFF08B1072810D1072202210120FFF7DD
:10AB8000C5FF08B1072808D100210A220846FFF7AF
:10AB9000BDFF10B1072808BF002008BD0388102B97
:10ABA00010B502D0112B1ED010BD1A4C2168B1B9BE
:10ABB00001220846FFF7AAFF08B1072824D107227F
:10ABC00002210120FFF7A2FF08B107281CD10422AF
:10ABD00002210020FFF79AFF08B1072814D123684B
:10ABE00001332360E0E70B4A1368013B1360002B3D
:10ABF000DAD1FFF7B8FF0028D6D0074B1B68002B2F
:10AC0000D2D0BDE810401847034B1B68002BE6D09C
:10AC10009847E4E7CC330020C833002008B5002073
:10AC2000FFF79AFF08B1062806D10120FFF794FF2D
:10AC300010B1062808BF002008BD00000D4B10B55C
:10AC400018600C4629B10120FFF700FF40B1022334
:10AC50002370094B1B6853B9BDE81040FFF783BF51
:10AC6000FFF7F4FE08B10B23F2E72070F1E70020B4
:10AC700010BD00BFC8330020CC3300206DDF70470B
:10AC800076DF70477ADF70477CDF70477FDF704781
:10AC90008FDF7047B1DF704733DF7047FDF76AB968
:10ACA00008B50020FFF7D8FE08B1FDF763F9FFF7FC
:10ACB000B5FF08B1FDF75EF9FFF7EEFF18B1BDE88B
:10ACC0000840FDF757B908BD0388212B13B504468A
:10ACD0003BD01FD8112B28D0132B3ED0102B32D1B4
:10ACE000264B27482749C01AC008000440F003003B
:10ACF000FCF76EFE0720FFF7AFFE08B1FDF73AF94B
:10AD0000214BA1882148198001F00AFFD8B1FDF735
:10AD100031F918E0522B28D0562B01D03B2B12D101
:10AD20001321A088FFF7ACFFF0E7144B1448184933
:10AD3000C01AC008000440F00300FCF749FE124BA3
:10AD40004FF6FF721A8002B010BD002301A980885F
:10AD5000ADF80430FFF79CFFD8E70B4800231A46F4
:10AD600085210088FFF792FFD0E7074800231A46A5
:10AD700019460088FFF78EFFC8E700BF0CDE02000F
:10AD800034DE0200DCE50200962B0020143900209E
:10AD9000E6E502000D4B4A881B889A4214D10A88C6
:10ADA00040F677239A420FD18B88094A09480A490D
:10ADB000033B9BB21380094A801AC00800041A465C
:10ADC00040F00300FCF711BE704700BF962B002037
:10ADD000942B002034DE0200E5E602000CDE0200C7
:10ADE00008B503784BB9054B3B211888FFF748FF9E
:10ADF00018B1BDE80840FDF7BDB808BD962B00208E
:10AE0000072808B513D00A280DD0042819D10D4BF6
:10AE100013211888FFF734FF30F0080311D0BDE884
:10AE20000840FDF7A7B8BDE80840FFF739BF054B5C
:10AE30001A884FF6FF739A4203D1034801F028FAAB
:10AE4000EAE708BD962B0020C834002008B548B1B9
:10AE500003280BD10220FFF7FFFD38B1BDE8084001
:10AE6000FDF788B8BDE80840FFF71ABF08BDFDF739
:10AE700081B8000008B50849084801F03DFD08B157
:10AE8000FDF778F8F721054801F04AFD18B1BDE853
:10AE90000840FDF76FB808BD95AD0200FC380020F2
:10AEA0007FB504A8FFF7EAFE9DF8163002939DF8DF
:10AEB000153001939DF8143000939DF812209DF8F1
:10AEC00013309DF81110054802F0E2FA04490548D4
:10AED00002F0DEFA07B05DF804FB00BF1AE80200DA
:10AEE00034E80200C3E7020008B51E4802F0D0FAB9
:10AEF0001D4802F0CDFA1D4802F0CAFA1C4802F0C3
:10AF0000C7FA1C4802F0C4FA1B4802F0C1FA1B48F9
:10AF100002F0BEFA1A4802F0BBFA1A4802F0B8FA78
:10AF2000194802F0B5FA194802F0B2FA184802F0CE
:10AF3000AFFA184802F0ACFA174802F0A9FA17481D
:10AF400002F0A6FA164802F0A3FA164802F0A0FA98
:10AF5000154802F09DFA15491548BDE8084002F071
:10AF600097BA00BF28F202003AF2020048F202004B
:10AF70008AF20200CFF2020014F3020059F3020039
:10AF80009EF30200E3F3020028F402006DF40200D5
:10AF9000B2F40200F7F402003CF5020081F5020071
:10AFA000C6F502000BF6020050F6020034E802007B
:10AFB000C3E7020008B51E4802F06AFA1D4802F015
:10AFC00067FA1D4802F064FA1C4802F061FA1C4856
:10AFD00002F05EFA1B4802F05BFA1B4802F058FAD6
:10AFE0001A4802F055FA1A4802F052FA194802F0CB
:10AFF0004FFA194802F04CFA184802F049FA18487A
:10B0000002F046FA174802F043FA174802F040FAF5
:10B01000164802F03DFA164802F03AFA154802F0D6
:10B0200037FA15491548BDE8084002F031BA00BFAB
:10B0300070ED020082ED0200C8ED02000EEE02008B
:10B0400054EE02009AEE0200E0EE020026EF02004B
:10B050006CEF0200B2EF0200F8EF02003EF00200D7
:10B0600084F00200CAF0020010F1020056F1020062
:10B070009CF10200E2F1020034E80200C3E70200A2
:10B0800038B54048404D414C02F002FA404802F0C9
:10B09000FFF9404802F0FCF93F4802F0F9F93F4857
:10B0A00002F0F6F93E4802F0F3F93E4802F0F0F9FA
:10B0B0003D4802F0EDF93D4802F0EAF9284602F079
:10B0C000E7F93B4802F0E4F93A4802F0E1F93A487E
:10B0D00002F0DEF9394802F0DBF9394802F0D8F91C
:10B0E000204602F0D5F9374802F0D2F9364802F08E
:10B0F000CFF9284602F0CCF9344802F0C9F93448B7
:10B1000002F0C6F9334802F0C3F9334802F0C0F93F
:10B11000324802F0BDF9204602F0BAF9304802F098
:10B12000B7F9304802F0B4F92F4802F0B1F92F48CE
:10B1300002F0AEF92E4802F0ABF92E4802F0A8F961
:10B140002D4802F0A5F92D4802F0A2F92C4802F092
:10B150009FF92C4802F09CF92B4802F099F92B48F2
:10B1600002F096F92A4802F093F92A4802F090F981
:10B17000294802F08DF929492948BDE8384002F0F4
:10B1800087B900BF28E902006AE902004AEA020022
:10B190003FE8020048E8020082E8020090E802006E
:10B1A000CBE8020003E902002BE902003FE90200BC
:10B1B0009BE90200CAE90200E9E902000AEA02008A
:10B1C0002BEA02006BEA020096EA0200B2EA0200F1
:10B1D000E3EA020015EB020051EB02008AEB0200E9
:10B1E000C5EB0200FAEB020016EC020032EC0200A2
:10B1F0004EEC020075EC020088EC02009DEC0200AF
:10B20000B2EC0200C9EC0200E0EC0200F4EC020037
:10B2100009ED02001FED020050ED020034E80200CB
:10B22000C3E7020030B54379302B04461BD1002020
:10B230000870E3792F2B20D9247A392C1DD803EB01
:10B240008305A4F1100303EB4503DBB213700A7806
:10B25000B2B91F2B1ED8104A22FA03F313F0010FC4
:10B2600008BF032030BD312B09BF012303230B701E
:10B2700000201CBF0B700220DBE732230320E5E730
:10B28000012AEFD15A1E082AECD90C3B032B88BFA8
:10B290000320E7E70320E5E7FCF9FBFF13B502789D
:10B2A00043786D2A044605D1612B0AD1FFF7E8FEE9
:10B2B00002B010BD702A0ED1692B70D1FFF714FEB9
:10B2C000F6E7752B04D07749774802F0E1F8EFE70D
:10B2D000FFF770FEECE7752A04D1732BF3D17149A7
:10B2E0007248F2E76E2A04D1662BECD16D497048A2
:10B2F000EBE76C2A04D1702BE5D1FFF7D1FCD7E73F
:10B30000612A04D1642BDED1FFF7CAFDD0E7672A9A
:10B31000D9D1702BD7D10DF107020DF10601FFF73E
:10B3200081FF002840F0AD80A37A303BDBB2012BD7
:10B3300019D19DF807209DF8061002F01F0343EA7B
:10B3400041131F2B4FF00100C6BF03F01F03594CE0
:10B350004FF0A04400FA03F3C4F808355648514BA7
:10B3600002F096F8A4E713B14E495448ADE79DF8B2
:10B3700007209DF8061002F01F0343EA41131F2B1C
:10B380004FF00100C6BF03F01F034A4C4FF0A0442A
:10B3900000FA03F3C4F80C354948424BE0E76F2B41
:10B3A00091D10DF107020DF10601FFF73BFF0028D7
:10B3B00067D1A37A303B13F0FF0316D19DF8072025
:10B3C0009DF8061002F01F0343EA41131F2BC6BF6E
:10B3D00003F01F0337484FF0A04003F5E073032448
:10B3E00040F823402F4B3748BAE7012B17D19DF87F
:10B3F00007209DF8061002F01F0343EA41131F2B9C
:10B40000C6BF03F01F032B484FF0A04003F5E073C5
:10B41000002440F823402C4802F03AF848E7022B79
:10B4200016D19DF807209DF8061002F01F0343EA8D
:10B4300041131F2BC6BF03F01F031E484FF0A0404F
:10B4400003F5E0730C2440F82340164B1F4887E7B0
:10B45000032B89D19DF807209DF8061002F01F03E9
:10B4600043EA41131F2BC6BF03F01F0311484FF0DF
:10B47000A04003F5E073042440F82340094B14482E
:10B480006EE701283FF41FAF022802D10549114899
:10B490001BE7032802D103490F4816E704283FF4AD
:10B4A00063AF05E734E80200F3E502000DE60200B1
:10B4B0001AE602000003005027E6020036E602000A
:10B4C0004EE602005FE6020072E6020084E6020039
:10B4D0009DE60200B8E60200CFE602000378012BE9
:10B4E0002DE9F34143D023B1022B40D002B0BDE897
:10B4F000F081214C214D20782844FDF79FF82378D6
:10B500000133DBB21D44237015F8010C0A282546CF
:10B5100005D00D2803D01A4A12889A4224D8012B4C
:10B520001CD9184E154FDFF868802B78ADF806301F
:10B530000DF1060233883946404601F067FC124996
:10B540000446124801F0A4FF082C07D0132CECD0BD
:10B55000052C03D014B12046FCF70CFD0748FFF77B
:10B560009DFE00232B70C1E7FDF77EF8BEE7406823
:10B57000FCF700FDBAE700BFC4340020D033002040
:10B58000942B0020962B002034E80200C1E7020033
:10B59000982B00202DE9F041057806468DBB1A4C0A
:10B5A0001A4BDFF87480E41AE408240444F0010420
:10B5B000B28A95420AD33369134413F8013C0D2B28
:10B5C00016D10A20FDF750F81128F9E73369585DC4
:10B5D000FDF74AF8074648B11128F7D00246414620
:10B5E0002046FCF7F9F93846FCF7C4FC0135DFE7E3
:10B5F0000749084801F04CFF3069BDE8F041FFF70A
:10B600004DBEBDE8F08100BF34DE02000CDE02005A
:10B6100034E80200C1E70200EFE7020000B57D4D0B
:10B620000FCDB1B005AC0FC47B4B019395E803007F
:10B630004FF480730293794B03934FF4006384E8D3
:10B6400003000493764A072301A905A8FCF79EFF8F
:10B6500008B1FCF78FFC4FF480410020FCF714F890
:10B6600008B1FCF787FCFBF74FFFFCF79FFD08B123
:10B67000FCF780FC6B490320FFF7FAF908B1FCF7EF
:10B6800079FC05A90020FFF7D9FA08B1FCF772FC94
:10B69000FDF73AFD08B1FCF76DFC01F035FC08B18F
:10B6A000FCF768FC002305A90120059301F0BAFC12
:10B6B00008B1FCF75FFC05A801F084FD08B1FCF7B8
:10B6C00059FC112358488DF8043001F090FF564979
:10B6D00082B201A8FFF7D8FA08B1FCF74BFC0021B1
:10B6E000082205A801F02EFF50494FF0C87305A8A5
:10B6F000CDE90513FFF7C6FA08B1FCF73BFCFFF7ED
:10B70000B9FB4B4B4B48059305A901F0F7F908B17C
:10B71000FCF730FC042200210DEB020001F012FFC7
:10B72000454B4648019301A901F0FAFA08B1FCF72C
:10B7300021FCAC22002105A801F004FF02238DF8B2
:10B7400014304FF4A0633E4AADF816300123ADF833
:10B75000603019928DF89030402244F25063CDE968
:10B76000272305A9374B38482E9300F0D3FB08B1A7
:10B77000FCF700FC0121344800F0C9FB1C22002129
:10B7800005A801F0DFFE00234FF4A032CDE9053219
:10B79000ADF822304FF4F0228DF824302B4B079275
:10B7A0000A9303222A4B8DF8202005A80B9300F062
:10B7B0008BFE08B1FCF7DEFB264801F069FE264847
:10B7C00001F066FE254801F063FE254801F060FEA9
:10B7D000224801F05DFEFFF753FC2249224801F0A8
:10B7E00057FE224B22482349C01AC008000440F0EB
:10B7F0000300FCF7EDF80321134800F002FC08B148
:10B80000FCF7B8FBFBF792FF0028FBD1FDF792FC99
:10B81000F8E700BFC4E5020020390020203A0020EC
:10B82000DDB4020001AE020001E7020010003C009E
:10B830009DAC02001439002095B50200982B002021
:10B84000902B00204DAE0200C8340020E1AD020074
:10B850006FAE02000DE7020028E902001FE70200B8
:10B8600063E7020034E80200A7E702000CDE0200F2
:10B8700034DE0200C6E702000369C1688B429DBF47
:10B880008268D21802F1FF3203F1FF3394BF501ADD
:10B89000581A70472DE9F041D0E9027405463E1B65
:10B8A0004068964220448846144404D901F021FEA1
:10B8B000EC60BDE8F0813246E41B01F01AFE22463E
:10B8C00008EB06016868F1E72DE9F843C56806460C
:10B8D000894617464FF000083469B3687068A5427E
:10B8E00028BFE418013C621B5C1BBC4228BF3C46DD
:10B8F000944228BF144649462844224601F0F9FDE7
:10B90000B3682544AB4208BF00253F1BA044A144B7
:10B91000F560E1D14046BDE8F883000010B5114C58
:10B92000114AA2610223C4E90433104BE361A2640B
:10B930004FF400730E4A2362E264002310220D4983
:10B94000A362E01D6362E362A3656365E36522654C
:10B9500001F02BFE0849204601F027FE2023A371A9
:10B9600010BD00BF2042002095F60200A842002032
:10B97000984200209EF60200A2F60200F8B5184C8C
:10B98000182300FB033503FB00402544C46A012C47
:10B990000F46164611D024B1022C1BD0002420469D
:10B9A000F8BD2846FFF768FFB042F8D33246394663
:10B9B0002846FFF76FFF3446F1E72846FFF75CFFA4
:10B9C0008642344628BF0446224639462846FFF7B9
:10B9D00061FFE4E72846BDE8F840FFF775BF00BF08
:10B9E00020420020FFF79ABF6DDF704779DF704774
:10B9F0007DDF704764DF70472DE9F04F85B000258B
:10BA00000E9CBDF83CB027880191804691469A462D
:10BA10002E46B8F80020B2420CDC3DB12288013A33
:10BA2000D21B92B2FF2A3BD80AF80720002005B0AB
:10BA3000BDE8F08FD8F8042052F8260003900022C9
:10BA40000DF10B0103A8FFF7D5FF0028EFD19DF8FA
:10BA50000B204A4522D12288002D14BF002002204D
:10BA600002EB0901014459451ADC45B9013292B291
:10BA7000019B22800AF8023022880132228022882B
:10BA80000DF10B01524403A8FFF7B4FF0028CED1FB
:10BA900021889DF80B200A44228001250136B8E751
:10BAA0000C20C4E72DE9F341089CBDF8245017464B
:10BAB000CDE90045022206469846FFF79DFF50B9A2
:10BAC0004346102239463046CDE9084502B0BDE86C
:10BAD000F041FFF791BF02B0BDE8F0812DE9F04FD2
:10BAE00000231688138090F82D3085B007460D4648
:10BAF000144653B3082E01D80C2027E102A8FFF703
:10BB000073FF002840F0228123880822EA5423880A
:10BB100001339BB21B222380EA542088013080B27B
:10BB2000208006220DF10901284401F0E2FC23885F
:10BB30009DF8082006339BB212F0FE0218BF0122C6
:10BB40002380EA54238801332380BB78FBB1238808
:10BB50000433B342D0D802A8FFF748FF002840F0D2
:10BB6000F58023880322EA54238801339BB21922EB
:10BB70002380EA542388BDF8082001339BB2E918DA
:10BB80002380EA54120A4A70238802332380FA7809
:10BB90009AB12388D91CB142AED80221E954238836
:10BBA00001339BB201212380E95423880B449BB2CB
:10BBB0002380EA5423880B4423807A68AAB123881F
:10BBC000D91CB14298D8022192F90020E954238867
:10BBD00001339BB20A212380E954238801339BB2AD
:10BBE0002380EA542388013323803B89002B40F0D3
:10BBF000A1803B8A5BB1CDE900462B460722032199
:10BC000007F11000FFF74EFF002840F09F803B8BAC
:10BC10005BB1CDE900462B461522142107F118002F
:10BC2000FFF740FF002840F091803A6A002A40F078
:10BC30009080D7F82480B8F1000F30D0B8F80430E5
:10BC40002188981C8A1C0244B2423FF655AFFE2858
:10BC50003FF652AF03336B54238801339BB2FF226C
:10BC60002380EA54238801339BB22380B8F8002054
:10BC7000EA54E918120A4A702088023080B2208003
:10BC8000B8F804205AB1D8F8081000296BD028441D
:10BC900001F02FFC2388B8F804201344238097F880
:10BCA0002C30002B40F09A80387800284ED03B880A
:10BCB000012B58D0228802F1020CB4453FF61CAF8C
:10BCC000012805D17B78023313449E42FFF414AF60
:10BCD000023EB61AB6B202A905EB0C00ADF8086038
:10BCE000FFF786FE90BB3978BDF80820022900F0E6
:10BCF000BA807B78934202D3B24240F2B2800129EB
:10BD000040F0B3809BB29E42C0F0AF80ADF80830E7
:10BD10000821BDF80830FE2B3FF6EEAE2288013335
:10BD2000AB542288013292B22280A9542288134453
:10BD300023800BE0CDE900462B460622022107F1C5
:10BD40000800FFF7AFFE00283FF453AF05B0BDE891
:10BD5000F08FB4F800C00CF10603B3423FF6CCAE4E
:10BD60001188052901D80720F0E76FF4486E01EB30
:10BD70000E039BB24FF27D3E7345F4D95388052BD9
:10BD8000F1D96FF44860181880B27045EBD94FF6BE
:10BD9000FF70814203D0834201D09942E3D805234A
:10BDA00005F80C30238801339BB212212380E9541B
:10BDB000238801339BB223801188E954E818090ACB
:10BDC0004170238802339BB223805288EA54E918D9
:10BDD000120A4A702388023323802AE7BB6A002BA9
:10BDE000C1D04FF000094FF00C0A4FF0160B97F836
:10BDF0002C305FFA89F293427FF656AFB96A0AFB9C
:10BE000002F201EB0208B8F80430981CFE283FF655
:10BE100073AE208803332B54238801339BB22380D5
:10BE200005F803B0238801339BB223808A5AEA5471
:10BE3000E918120A4A702088023080B22080B8F8CF
:10BE400004205AB1D8F8081000298CD0284401F0F9
:10BE500050FB2388B8F804201344238009F101091A
:10BE6000C5E7092155E7B242FBD9ADF808604FE7B5
:10BE700030B5C0B1EAB10024651C8D4206DA1588E0
:10BE8000A54211D805196D789D420DD1A14210D956
:10BE9000005D40B1013880B228B10234A4B2231849
:10BEA000994206DB148030BD055D01352C44A4B2F7
:10BEB000E2E70020F7E713B50023ADF8063013469C
:10BEC0000DF106020446FFF7D3FF10B1BDF80600DE
:10BED000204402B010BD72DF704773DF704774DF1B
:10BEE000704738B5012204460D46B0F81414D0F856
:10BEF0001004FFF7E0FF00B1057004F13C0204F507
:10BF0000826104F15400BDE83840FFF7E4BF80F8D7
:10BF100030107047F8B504460F4600296DD0002850
:10BF20006BD091F87A301BB191F89830002B66D124
:10BF300007F178060FCE4FF0000C251D84F802C0E3
:10BF40000FC50FCE0FC596E8070085E8070084F8F7
:10BF500030C0D7F8A4306363D7F8A830A3634FF696
:10BF6000FF7504F58263C4F82034A4F82454072232
:10BF7000614604F2264001F0E5FA23780BB984F813
:10BF8000545094F82430002B14BFEE231F2304F1E7
:10BF90005501C4F81014A4F8143404F214423846BD
:10BFA000FFF79CFD40BB94F82430002B14BFEE2318
:10BFB0001F2304F23121C4F81814A4F81C3404F22D
:10BFC0001C4207F13C00FFF789FDA8B9A369A4F85A
:10BFD00048304FF480730125A4F850306369206421
:10BFE000014684F83C50636404F13C0204F15400BF
:10BFF000FFF771FF00B92570F8BD0E20FCE70720A0
:10C00000FAE7F8B5077804460D46002F00F00981DD
:10C0100000F22646A17007220021304601F092FA74
:10C02000E38813B1A378012B04D0E3794BB1A37853
:10C03000022B06D1636BA3B1012284F82D240820C2
:10C040009847334604F22C4113F8012F12B98B4262
:10C05000FAD117466B1E032B57D8DFE803F0050B08
:10C060000F1284F82D34ECE7A3791BB194F8243037
:10C0700003B95FB9E3790BB1002F48D1237A002BC4
:10C0800047D1637A002B0CBF00250425636BA57094
:10C09000002B40D0033D012D3DD86279002A3AD0D3
:10C0A00094F82E24002A36D184F83024012284F812
:10C0B0002F240720984704F13C0518220021284628
:10C0C00001F040FAE26A0123511E994284F83C30A3
:10C0D00001D9042A00D1D3B294F8242084F8513035
:10C0E00042B1A36A591E012902D9042B18BF0123AA
:10C0F00084F85230A178002384F8503004291BD8EA
:10C10000DFE801F0770D223559000025BEE7022552
:10C11000BCE70325BAE7002384F82F34CBE7C4F843
:10C120002034C4E910630223012284F83C308023C8
:10C1300084F83120A4F84830A378002B5CD1636BDD
:10C14000002B6AD1002067E00223002A84F83130F6
:10C1500014BF0723032384F83C302369A4F8483034
:10C160000023C4F82034E36826646364E4E7636969
:10C170006364A369A4F8483012B1062384F83C3004
:10C180006379B3B194F82E349BB994F8303483B109
:10C19000022384F8503004212046FFF7A2FE002835
:10C1A000CAD1052384F8313004F58263C4F8203401
:10C1B000C2E70323F6E7E3696364236AA4F848301F
:10C1C00012B1062384F83C30637983B194F82E349D
:10C1D0006BB994F8303453B1022384F85030042101
:10C1E0002046FFF77EFE0028A6D10623DAE70423C7
:10C1F000D8E784F831309FE72A46D4F8201404F1B8
:10C200005400FFF768FE38B994F8301094F85400E1
:10C21000FFF763FE002892D0F8BD94F831009847EC
:10C2200090E70820F8E70388112B10B50C460AD0D8
:10C23000262B1FD0102B05D1C37B012B02D1838865
:10C24000A1F8243410BD0022838881F82E24B1F88F
:10C2500024249A42F6D10B79002BF3D101212046F8
:10C26000FFF7CFFE0028EDD0A36B002BEAD0BDE88E
:10C2700010401847037A013B012BE3D88978052346
:10C280000131B1FBF3F303EB8303C91AC9B2E6E74B
:10C2900038B5044690F85400FFF721FE012384F8D6
:10C2A0002E34002384F8303484F8503006212046A0
:10C2B000FFF717FE054638B9A1782046FFF7A1FE23
:10C2C00010B1A36B03B19847284638BD75DF70479E
:10C2D00076DF70477ADF70477BDF7047034B1A8841
:10C2E00082420CBF18460020704700BFC4440020A3
:10C2F000024B9B6903B11847704700BFA844002058
:10C3000073B586B23046FFF7E9FF044670B1164DAB
:10C31000027A2B7B9A420BD200F10A013046FFF7DA
:10C32000D5FFE8B1112801D0FFF7E2FF02B070BDE0
:10C33000002303722B7C43B13B213046FFF7C8FF3B
:10C3400030F0080301D0FFF7D3FF6B69002BEDD06D
:10C3500000228DF80420ADF8066001A89847E5E7B3
:10C36000237A01332372E1E7A844002013B50B467A
:10C37000497A0F4C024669B9D4E901101C7A002CA5
:10C3800018BF01465868FBF755FF08B1FFF7B0FF2B
:10C3900002B010BD002119726369002BF8D0012191
:10C3A000ADF806008DF8041001A89847F0E700BF2B
:10C3B000A84400204B8802889A4213D842889A42A7
:10C3C00010D380888A8840F2F313984294BF031AEE
:10C3D000C31A934206D800F2F310904234BF0020F3
:10C3E00001207047002070470388112B70B501466B
:10C3F00048D002D8102B1ED070BD122B52D0502B1B
:10C40000FAD12F4BC288DB899A42F5D1038A022BDD
:10C41000F2D186883046FFF761FF05460028EBD051
:10C4200001F1120000F079F930BB6868FBF72DFFCD
:10C430000028E1D009E0C37B012BDDD14FF6FF706E
:10C44000FFF74CFF054620B90420BDE87040FFF718
:10C450004FBF1C4A8E880680002303721368C5F8FC
:10C460000A300A30536843601031FFF7A3FF144BC2
:10C470006872DB89002BBFD129463046BDE8704089
:10C48000FFF774BF8088FFF729FF04460028B3D068
:10C490004068FBF7FAFE08B1FFF72AFF4FF6FF737B
:10C4A0002380A9E786883046FFF718FF0546002855
:10C4B000A2D008310A30FFF77DFF6872DCE700BFC9
:10C4C000A8440020D8440020F8B5064648B30546E5
:10C4D0000FCD154F3C460FC495E8070084E80700D0
:10C4E0003068124C3C60B0B1FFF7F4FEC0B932685E
:10C4F00013682360536863600D480E4A4FF6FF735C
:10C5000003800D4B40F8043F0021FBF781FE00281B
:10C5100018BF032004E02046FFF7DEFE0028EBD022
:10C52000F8BD0E20FCE700BFA8440020D84400203E
:10C53000C444002001C30200E04400200AB1FCF71B
:10C54000B7BAFCF7BEBA73B50191019C06466CB14F
:10C5500000252C46294601A8FCF7BDFA18B106EBC8
:10C56000440301349D800135142DF3D130463460ED
:10C5700002B070BD2DE9F04703888488103B8CB071
:10C5800005460A2B1FD8DFE803F0063F1E1E1E1EBD
:10C590001E1E1E5F4400314EB368DB43009371687A
:10C5A0006846FCF7C1FA009901A8FFF7CCFF0DF12E
:10C5B00008094FF00008019B984507D3132C13D9A5
:10C5C0000420FBF7D7FC0CB0BDE8F08739F802ABCC
:10C5D00000270137514606EB8700FCF772FA1E2F41
:10C5E000F7D108F10108E6E721461D48FCF760FA9B
:10C5F00021461C48FCF75CFAEB7B022BE3D1214679
:10C600001948FCF755FADEE721461548FCF759FAB8
:10C61000D9E7057A15482D09032D94BF0022012280
:10C620002146FFF78BFF022D94BF002201222146F5
:10C630000F48FFF783FF012D0E4894BF002201220F
:10C640002146FFF77BFFBEE7037A002BBBD1427A7E
:10C650000648C2F3C0022146F3E700BF00450020B0
:10C6600008450020044500200C4500201845002006
:10C6700014450020104500201328014602D8024826
:10C68000FCF729BA002070470445002010B5044685
:10C69000FFF7F2FF002814BF2046142010BD70B52C
:10C6A000054616460AB90E2070BD00231360002807
:10C6B000F9D00368002BF6D0C38813F003040FD120
:10C6C0000846FFF7E3FFC0B214280BD02B79834252
:10C6D0000AD9EB882A6800FB032333602046E3E78E
:10C6E0000720E1E70520DFE70420DDE7AADF704748
:10C6F000002301380B70042806D8DFE800F0030699
:10C70000080A0C0011230B7070472123FBE731232B
:10C71000F9E71223F7E72223F5E7007800F001009C
:10C720007047F0B58B7891B0002B0C4608BF012301
:10C730008DF80E3005460B88ADF80C3000211646FA
:10C740006846032200F0FEFE6946607CFFF7D0FFDA
:10C750000DF10101A07CFFF7CBFF9DF80230E27BD9
:10C7600062F3C303227C62F30413227B62F30003AF
:10C77000227D002A14BF0222012262F3420300211B
:10C780001C2209A88DF8023000F0DCFE637B13F058
:10C79000300F15D002AF03220021384600F0D2FE40
:10C7A0000DF10901E07CFFF7A3FF11238DF808309C
:10C7B0009DF80A300E97012262F342038DF80A3089
:10C7C000637B8DF824301422A37B8DF82530002163
:10C7D00004A800F0B7FE03AB0493A388ADF81C30A7
:10C7E000A368CDF814D01BB1E288ADF818200893E7
:10C7F000A369002B2ED001AF03220021384600F0A0
:10C80000A1FEA3691A88ADF82C205A88187BADF8D0
:10C810002E2039465A680A920D97FFF769FFA369DF
:10C820000DF10501587BFFF763FFA2699DF8063003
:10C83000917A61F3C303D17A61F30413117A927B85
:10C84000002A61F3000314BF0222012262F34203B3
:10C850008DF80630E36903B10C93334604AA09A9A5
:10C860002846FFF743FF11B0F0BD90DF7047A5DF0A
:10C870007047B5DF704700007FB50023ADF80810A2
:10C88000ADF80A106A4602A9064603930093ADF874
:10C890000430FFF7EAFF054600B3124B124CE41ACE
:10C8A000E408FCF7D1FC240444F0010403463246BA
:10C8B0000E492046FBF799F8BDF80020BDF802307C
:10C8C00052EA030103D00A492046FBF78EF8BDF86F
:10C8D00004201AB107492046FBF77EF8284604B029
:10C8E00070BD00BF0CDE02005CDE0200A9F6020093
:10C8F000F3F6020032F7020080B14FF0F713036045
:10C90000FB230371F723C3801723038141F6FB3216
:10C910000023016143818281184670470E207047D1
:10C9200030B1A1F11703E02B04D80180002070473B
:10C930000E2070470720704713B5034680880C46C9
:10C94000A0B91A88232A00F0A48011D8102A22D076
:10C95000112A51D0A37A4BB1E1880020FFF787FF5D
:10C96000002840F09C804FF48073638102B010BDBA
:10C970003A2A4AD0552A60D0242AEBD11A7A0B6978
:10C980004A73002BE6D04DF67A21ADF804000091F1
:10C990008DF8042079E0DB7B0A790A73012B13D030
:10C9A000022B14D0E18823898B4205D20020FFF7A7
:10C9B0005EFF70B90123E372217B637B8B42C9D296
:10C9C0000020FFF759FFC5E70B88E380EAE74B88B3
:10C9D000FBE7112802D10123A372EDE7FCF734FC39
:10C9E000374A384B38499B1ADB081B04024643F090
:10C9F0000100FAF7F1FFDFE7F723CB8017230B8164
:10CA000041F6FB3348818B81A4E75B89CA88934256
:10CA100028BF1346172B0A6938BF17230B814AB169
:10CA2000C97A39B140F677210091ADF804306946F2
:10CA300020469047002363818CE7DB88C988A07279
:10CA4000172B38BF17238B4228BF0B462381FFF7D4
:10CA500010FF60B1FCF7F8FB194A1A4B1B499B1AEF
:10CA6000DB081B04024643F00100FAF7B5FFE37A46
:10CA7000002B7FF46FAF2369002B3FF46BAF40F6C0
:10CA8000772200922289ADF8042069462046984713
:10CA900060E7197A237B994228BF194691E711284C
:10CAA0003FF464AFFCF7D0FB054A064B06499B1ADE
:10CAB000DB081B04024643F00100FAF78DFF55E73F
:10CAC0000CDE02005CDE020088F70200B9F702000B
:10CAD000B0DF704766DF704710B50021044640881C
